{
  "contractName": "Remixr",
  "abi": [
    {
      "inputs": [
        {
          "internalType": "string",
          "name": "_name",
          "type": "string"
        },
        {
          "internalType": "string",
          "name": "_symbol",
          "type": "string"
        }
      ],
      "stateMutability": "nonpayable",
      "type": "constructor"
    },
    {
      "anonymous": false,
      "inputs": [
        {
          "indexed": true,
          "internalType": "address",
          "name": "owner",
          "type": "address"
        },
        {
          "indexed": true,
          "internalType": "address",
          "name": "approved",
          "type": "address"
        },
        {
          "indexed": true,
          "internalType": "uint256",
          "name": "tokenId",
          "type": "uint256"
        }
      ],
      "name": "Approval",
      "type": "event"
    },
    {
      "anonymous": false,
      "inputs": [
        {
          "indexed": true,
          "internalType": "address",
          "name": "owner",
          "type": "address"
        },
        {
          "indexed": true,
          "internalType": "address",
          "name": "operator",
          "type": "address"
        },
        {
          "indexed": false,
          "internalType": "bool",
          "name": "approved",
          "type": "bool"
        }
      ],
      "name": "ApprovalForAll",
      "type": "event"
    },
    {
      "anonymous": false,
      "inputs": [
        {
          "indexed": true,
          "internalType": "address",
          "name": "from",
          "type": "address"
        },
        {
          "indexed": true,
          "internalType": "address",
          "name": "to",
          "type": "address"
        },
        {
          "indexed": true,
          "internalType": "uint256",
          "name": "tokenId",
          "type": "uint256"
        }
      ],
      "name": "Transfer",
      "type": "event"
    },
    {
      "inputs": [
        {
          "internalType": "address",
          "name": "to",
          "type": "address"
        },
        {
          "internalType": "uint256",
          "name": "tokenId",
          "type": "uint256"
        }
      ],
      "name": "approve",
      "outputs": [],
      "stateMutability": "nonpayable",
      "type": "function"
    },
    {
      "inputs": [
        {
          "internalType": "address",
          "name": "owner",
          "type": "address"
        }
      ],
      "name": "balanceOf",
      "outputs": [
        {
          "internalType": "uint256",
          "name": "",
          "type": "uint256"
        }
      ],
      "stateMutability": "view",
      "type": "function",
      "constant": true
    },
    {
      "inputs": [
        {
          "internalType": "uint256",
          "name": "tokenId",
          "type": "uint256"
        }
      ],
      "name": "getApproved",
      "outputs": [
        {
          "internalType": "address",
          "name": "",
          "type": "address"
        }
      ],
      "stateMutability": "view",
      "type": "function",
      "constant": true
    },
    {
      "inputs": [
        {
          "internalType": "address",
          "name": "owner",
          "type": "address"
        },
        {
          "internalType": "address",
          "name": "operator",
          "type": "address"
        }
      ],
      "name": "isApprovedForAll",
      "outputs": [
        {
          "internalType": "bool",
          "name": "",
          "type": "bool"
        }
      ],
      "stateMutability": "view",
      "type": "function",
      "constant": true
    },
    {
      "inputs": [],
      "name": "name",
      "outputs": [
        {
          "internalType": "string",
          "name": "",
          "type": "string"
        }
      ],
      "stateMutability": "view",
      "type": "function",
      "constant": true
    },
    {
      "inputs": [
        {
          "internalType": "uint256",
          "name": "tokenId",
          "type": "uint256"
        }
      ],
      "name": "ownerOf",
      "outputs": [
        {
          "internalType": "address",
          "name": "",
          "type": "address"
        }
      ],
      "stateMutability": "view",
      "type": "function",
      "constant": true
    },
    {
      "inputs": [
        {
          "internalType": "address",
          "name": "from",
          "type": "address"
        },
        {
          "internalType": "address",
          "name": "to",
          "type": "address"
        },
        {
          "internalType": "uint256",
          "name": "tokenId",
          "type": "uint256"
        }
      ],
      "name": "safeTransferFrom",
      "outputs": [],
      "stateMutability": "nonpayable",
      "type": "function"
    },
    {
      "inputs": [
        {
          "internalType": "address",
          "name": "from",
          "type": "address"
        },
        {
          "internalType": "address",
          "name": "to",
          "type": "address"
        },
        {
          "internalType": "uint256",
          "name": "tokenId",
          "type": "uint256"
        },
        {
          "internalType": "bytes",
          "name": "_data",
          "type": "bytes"
        }
      ],
      "name": "safeTransferFrom",
      "outputs": [],
      "stateMutability": "nonpayable",
      "type": "function"
    },
    {
      "inputs": [
        {
          "internalType": "address",
          "name": "operator",
          "type": "address"
        },
        {
          "internalType": "bool",
          "name": "approved",
          "type": "bool"
        }
      ],
      "name": "setApprovalForAll",
      "outputs": [],
      "stateMutability": "nonpayable",
      "type": "function"
    },
    {
      "inputs": [
        {
          "internalType": "bytes4",
          "name": "interfaceId",
          "type": "bytes4"
        }
      ],
      "name": "supportsInterface",
      "outputs": [
        {
          "internalType": "bool",
          "name": "",
          "type": "bool"
        }
      ],
      "stateMutability": "view",
      "type": "function",
      "constant": true
    },
    {
      "inputs": [],
      "name": "symbol",
      "outputs": [
        {
          "internalType": "string",
          "name": "",
          "type": "string"
        }
      ],
      "stateMutability": "view",
      "type": "function",
      "constant": true
    },
    {
      "inputs": [
        {
          "internalType": "uint256",
          "name": "tokenId",
          "type": "uint256"
        }
      ],
      "name": "tokenURI",
      "outputs": [
        {
          "internalType": "string",
          "name": "",
          "type": "string"
        }
      ],
      "stateMutability": "view",
      "type": "function",
      "constant": true
    },
    {
      "inputs": [
        {
          "internalType": "address",
          "name": "from",
          "type": "address"
        },
        {
          "internalType": "address",
          "name": "to",
          "type": "address"
        },
        {
          "internalType": "uint256",
          "name": "tokenId",
          "type": "uint256"
        }
      ],
      "name": "transferFrom",
      "outputs": [],
      "stateMutability": "nonpayable",
      "type": "function"
    },
    {
      "inputs": [
        {
          "internalType": "uint256",
          "name": "tokenId",
          "type": "uint256"
        },
        {
          "internalType": "string",
          "name": "tokenURI",
          "type": "string"
        }
      ],
      "name": "setTokenURI",
      "outputs": [],
      "stateMutability": "nonpayable",
      "type": "function"
    },
    {
      "inputs": [
        {
          "internalType": "string",
          "name": "baseURI_",
          "type": "string"
        }
      ],
      "name": "setBaseURI",
      "outputs": [],
      "stateMutability": "nonpayable",
      "type": "function"
    },
    {
      "inputs": [
        {
          "internalType": "address",
          "name": "owner",
          "type": "address"
        },
        {
          "internalType": "string",
          "name": "cid",
          "type": "string"
        }
      ],
      "name": "mint",
      "outputs": [
        {
          "internalType": "uint256",
          "name": "",
          "type": "uint256"
        }
      ],
      "stateMutability": "nonpayable",
      "type": "function"
    }
  ],
  "bytecode": "0x60806040523480156200001157600080fd5b5060405162003108380380620031088339818101604052810190620000379190620002c2565b818181600090805190602001906200005192919062000075565b5080600190805190602001906200006a92919062000075565b5050505050620003ab565b828054620000839062000376565b90600052602060002090601f016020900481019282620000a75760008555620000f3565b82601f10620000c257805160ff1916838001178555620000f3565b82800160010185558215620000f3579182015b82811115620000f2578251825591602001919060010190620000d5565b5b50905062000102919062000106565b5090565b5b808211156200012157600081600090555060010162000107565b5090565b6000604051905090565b600080fd5b600080fd5b600080fd5b600080fd5b6000601f19601f8301169050919050565b7f4e487b7100000000000000000000000000000000000000000000000000000000600052604160045260246000fd5b6200018e8262000143565b810181811067ffffffffffffffff82111715620001b057620001af62000154565b5b80604052505050565b6000620001c562000125565b9050620001d3828262000183565b919050565b600067ffffffffffffffff821115620001f657620001f562000154565b5b620002018262000143565b9050602081019050919050565b60005b838110156200022e57808201518184015260208101905062000211565b838111156200023e576000848401525b50505050565b60006200025b6200025584620001d8565b620001b9565b9050828152602081018484840111156200027a57620002796200013e565b5b620002878482856200020e565b509392505050565b600082601f830112620002a757620002a662000139565b5b8151620002b984826020860162000244565b91505092915050565b60008060408385031215620002dc57620002db6200012f565b5b600083015167ffffffffffffffff811115620002fd57620002fc62000134565b5b6200030b858286016200028f565b925050602083015167ffffffffffffffff8111156200032f576200032e62000134565b5b6200033d858286016200028f565b9150509250929050565b7f4e487b7100000000000000000000000000000000000000000000000000000000600052602260045260246000fd5b600060028204905060018216806200038f57607f821691505b602082108103620003a557620003a462000347565b5b50919050565b612d4d80620003bb6000396000f3fe608060405234801561001057600080fd5b50600436106101005760003560e01c80636352211e11610097578063b88d4fde11610066578063b88d4fde146102a9578063c87b56dd146102c5578063d0def521146102f5578063e985e9c51461032557610100565b80636352211e1461020f57806370a082311461023f57806395d89b411461026f578063a22cb4651461028d57610100565b8063162094c4116100d3578063162094c41461019f57806323b872dd146101bb57806342842e0e146101d757806355f804b3146101f357610100565b806301ffc9a71461010557806306fdde0314610135578063081812fc14610153578063095ea7b314610183575b600080fd5b61011f600480360381019061011a9190611a0c565b610355565b60405161012c9190611a54565b60405180910390f35b61013d610437565b60405161014a9190611b08565b60405180910390f35b61016d60048036038101906101689190611b60565b6104c9565b60405161017a9190611bce565b60405180910390f35b61019d60048036038101906101989190611c15565b61054e565b005b6101b960048036038101906101b49190611d8a565b610665565b005b6101d560048036038101906101d09190611de6565b610673565b005b6101f160048036038101906101ec9190611de6565b6106d3565b005b61020d60048036038101906102089190611e39565b6106f3565b005b61022960048036038101906102249190611b60565b61070d565b6040516102369190611bce565b60405180910390f35b61025960048036038101906102549190611e82565b6107be565b6040516102669190611ebe565b60405180910390f35b610277610875565b6040516102849190611b08565b60405180910390f35b6102a760048036038101906102a29190611f05565b610907565b005b6102c360048036038101906102be9190611fe6565b61091d565b005b6102df60048036038101906102da9190611b60565b61097f565b6040516102ec9190611b08565b60405180910390f35b61030f600480360381019061030a9190612069565b610ad0565b60405161031c9190611ebe565b60405180910390f35b61033f600480360381019061033a91906120c5565b610b08565b60405161034c9190611a54565b60405180910390f35b60007f80ac58cd000000000000000000000000000000000000000000000000000000007bffffffffffffffffffffffffffffffffffffffffffffffffffffffff1916827bffffffffffffffffffffffffffffffffffffffffffffffffffffffff1916148061042057507f5b5e139f000000000000000000000000000000000000000000000000000000007bffffffffffffffffffffffffffffffffffffffffffffffffffffffff1916827bffffffffffffffffffffffffffffffffffffffffffffffffffffffff1916145b80610430575061042f82610b9c565b5b9050919050565b60606000805461044690612134565b80601f016020809104026020016040519081016040528092919081815260200182805461047290612134565b80156104bf5780601f10610494576101008083540402835291602001916104bf565b820191906000526020600020905b8154815290600101906020018083116104a257829003601f168201915b5050505050905090565b60006104d482610c06565b610513576040517f08c379a000000000000000000000000000000000000000000000000000000000815260040161050a906121d7565b60405180910390fd5b6004600083815260200190815260200160002060009054906101000a900473ffffffffffffffffffffffffffffffffffffffff169050919050565b60006105598261070d565b90508073ffffffffffffffffffffffffffffffffffffffff168373ffffffffffffffffffffffffffffffffffffffff16036105c9576040517f08c379a00000000000000000000000000000000000000000000000000000000081526004016105c090612269565b60405180910390fd5b8073ffffffffffffffffffffffffffffffffffffffff166105e8610c72565b73ffffffffffffffffffffffffffffffffffffffff161480610617575061061681610611610c72565b610b08565b5b610656576040517f08c379a000000000000000000000000000000000000000000000000000000000815260040161064d906122fb565b60405180910390fd5b6106608383610c7a565b505050565b61066f8282610d33565b5050565b61068461067e610c72565b82610da7565b6106c3576040517f08c379a00000000000000000000000000000000000000000000000000000000081526004016106ba9061238d565b60405180910390fd5b6106ce838383610e85565b505050565b6106ee8383836040518060200160405280600081525061091d565b505050565b80600790805190602001906107099291906118fd565b5050565b6000806002600084815260200190815260200160002060009054906101000a900473ffffffffffffffffffffffffffffffffffffffff169050600073ffffffffffffffffffffffffffffffffffffffff168173ffffffffffffffffffffffffffffffffffffffff16036107b5576040517f08c379a00000000000000000000000000000000000000000000000000000000081526004016107ac9061241f565b60405180910390fd5b80915050919050565b60008073ffffffffffffffffffffffffffffffffffffffff168273ffffffffffffffffffffffffffffffffffffffff160361082e576040517f08c379a0000000000000000000000000000000000000000000000000000000008152600401610825906124b1565b60405180910390fd5b600360008373ffffffffffffffffffffffffffffffffffffffff1673ffffffffffffffffffffffffffffffffffffffff168152602001908152602001600020549050919050565b60606001805461088490612134565b80601f01602080910402602001604051908101604052809291908181526020018280546108b090612134565b80156108fd5780601f106108d2576101008083540402835291602001916108fd565b820191906000526020600020905b8154815290600101906020018083116108e057829003601f168201915b5050505050905090565b610919610912610c72565b83836110eb565b5050565b61092e610928610c72565b83610da7565b61096d576040517f08c379a00000000000000000000000000000000000000000000000000000000081526004016109649061238d565b60405180910390fd5b61097984848484611257565b50505050565b606061098a82610c06565b6109c9576040517f08c379a00000000000000000000000000000000000000000000000000000000081526004016109c090612543565b60405180910390fd5b60006006600084815260200190815260200160002080546109e990612134565b80601f0160208091040260200160405190810160405280929190818152602001828054610a1590612134565b8015610a625780601f10610a3757610100808354040283529160200191610a62565b820191906000526020600020905b815481529060010190602001808311610a4557829003601f168201915b505050505090506000610a736112b3565b90506000815103610a88578192505050610acb565b600082511115610abd578082604051602001610aa592919061259f565b60405160208183030381529060405292505050610acb565b610ac684611345565b925050505b919050565b6000610adc60086113ec565b6000610ae86008611402565b9050610af48482611410565b610afe8184610d33565b8091505092915050565b6000600560008473ffffffffffffffffffffffffffffffffffffffff1673ffffffffffffffffffffffffffffffffffffffff16815260200190815260200160002060008373ffffffffffffffffffffffffffffffffffffffff1673ffffffffffffffffffffffffffffffffffffffff16815260200190815260200160002060009054906101000a900460ff16905092915050565b60007f01ffc9a7000000000000000000000000000000000000000000000000000000007bffffffffffffffffffffffffffffffffffffffffffffffffffffffff1916827bffffffffffffffffffffffffffffffffffffffffffffffffffffffff1916149050919050565b60008073ffffffffffffffffffffffffffffffffffffffff166002600084815260200190815260200160002060009054906101000a900473ffffffffffffffffffffffffffffffffffffffff1673ffffffffffffffffffffffffffffffffffffffff1614159050919050565b600033905090565b816004600083815260200190815260200160002060006101000a81548173ffffffffffffffffffffffffffffffffffffffff021916908373ffffffffffffffffffffffffffffffffffffffff160217905550808273ffffffffffffffffffffffffffffffffffffffff16610ced8361070d565b73ffffffffffffffffffffffffffffffffffffffff167f8c5be1e5ebec7d5bd14f71427d1e84f3dd0314c0f7b2291e5b200ac8c7c3b92560405160405180910390a45050565b610d3c82610c06565b610d7b576040517f08c379a0000000000000000000000000000000000000000000000000000000008152600401610d7290612635565b60405180910390fd5b80600660008481526020019081526020016000209080519060200190610da29291906118fd565b505050565b6000610db282610c06565b610df1576040517f08c379a0000000000000000000000000000000000000000000000000000000008152600401610de8906126c7565b60405180910390fd5b6000610dfc8361070d565b90508073ffffffffffffffffffffffffffffffffffffffff168473ffffffffffffffffffffffffffffffffffffffff161480610e6b57508373ffffffffffffffffffffffffffffffffffffffff16610e53846104c9565b73ffffffffffffffffffffffffffffffffffffffff16145b80610e7c5750610e7b8185610b08565b5b91505092915050565b8273ffffffffffffffffffffffffffffffffffffffff16610ea58261070d565b73ffffffffffffffffffffffffffffffffffffffff1614610efb576040517f08c379a0000000000000000000000000000000000000000000000000000000008152600401610ef290612759565b60405180910390fd5b600073ffffffffffffffffffffffffffffffffffffffff168273ffffffffffffffffffffffffffffffffffffffff1603610f6a576040517f08c379a0000000000000000000000000000000000000000000000000000000008152600401610f61906127eb565b60405180910390fd5b610f758383836115e9565b610f80600082610c7a565b6001600360008573ffffffffffffffffffffffffffffffffffffffff1673ffffffffffffffffffffffffffffffffffffffff1681526020019081526020016000206000828254610fd0919061283a565b925050819055506001600360008473ffffffffffffffffffffffffffffffffffffffff1673ffffffffffffffffffffffffffffffffffffffff1681526020019081526020016000206000828254611027919061286e565b92505081905550816002600083815260200190815260200160002060006101000a81548173ffffffffffffffffffffffffffffffffffffffff021916908373ffffffffffffffffffffffffffffffffffffffff160217905550808273ffffffffffffffffffffffffffffffffffffffff168473ffffffffffffffffffffffffffffffffffffffff167fddf252ad1be2c89b69c2b068fc378daa952ba7f163c4a11628f55a4df523b3ef60405160405180910390a46110e68383836115ee565b505050565b8173ffffffffffffffffffffffffffffffffffffffff168373ffffffffffffffffffffffffffffffffffffffff1603611159576040517f08c379a000000000000000000000000000000000000000000000000000000000815260040161115090612910565b60405180910390fd5b80600560008573ffffffffffffffffffffffffffffffffffffffff1673ffffffffffffffffffffffffffffffffffffffff16815260200190815260200160002060008473ffffffffffffffffffffffffffffffffffffffff1673ffffffffffffffffffffffffffffffffffffffff16815260200190815260200160002060006101000a81548160ff0219169083151502179055508173ffffffffffffffffffffffffffffffffffffffff168373ffffffffffffffffffffffffffffffffffffffff167f17307eab39ab6107e8899845ad3d59bd9653f200f220920489ca2b5937696c318360405161124a9190611a54565b60405180910390a3505050565b611262848484610e85565b61126e848484846115f3565b6112ad576040517f08c379a00000000000000000000000000000000000000000000000000000000081526004016112a4906129a2565b60405180910390fd5b50505050565b6060600780546112c290612134565b80601f01602080910402602001604051908101604052809291908181526020018280546112ee90612134565b801561133b5780601f106113105761010080835404028352916020019161133b565b820191906000526020600020905b81548152906001019060200180831161131e57829003601f168201915b5050505050905090565b606061135082610c06565b61138f576040517f08c379a000000000000000000000000000000000000000000000000000000000815260040161138690612a34565b60405180910390fd5b60006113996112b3565b905060008151116113b957604051806020016040528060008152506113e4565b806113c38461177a565b6040516020016113d492919061259f565b6040516020818303038152906040525b915050919050565b6001816000016000828254019250508190555050565b600081600001549050919050565b600073ffffffffffffffffffffffffffffffffffffffff168273ffffffffffffffffffffffffffffffffffffffff160361147f576040517f08c379a000000000000000000000000000000000000000000000000000000000815260040161147690612aa0565b60405180910390fd5b61148881610c06565b156114c8576040517f08c379a00000000000000000000000000000000000000000000000000000000081526004016114bf90612b0c565b60405180910390fd5b6114d4600083836115e9565b6001600360008473ffffffffffffffffffffffffffffffffffffffff1673ffffffffffffffffffffffffffffffffffffffff1681526020019081526020016000206000828254611524919061286e565b92505081905550816002600083815260200190815260200160002060006101000a81548173ffffffffffffffffffffffffffffffffffffffff021916908373ffffffffffffffffffffffffffffffffffffffff160217905550808273ffffffffffffffffffffffffffffffffffffffff16600073ffffffffffffffffffffffffffffffffffffffff167fddf252ad1be2c89b69c2b068fc378daa952ba7f163c4a11628f55a4df523b3ef60405160405180910390a46115e5600083836115ee565b5050565b505050565b505050565b60006116148473ffffffffffffffffffffffffffffffffffffffff166118da565b1561176d578373ffffffffffffffffffffffffffffffffffffffff1663150b7a0261163d610c72565b8786866040518563ffffffff1660e01b815260040161165f9493929190612b81565b6020604051808303816000875af192505050801561169b57506040513d601f19601f820116820180604052508101906116989190612be2565b60015b61171d573d80600081146116cb576040519150601f19603f3d011682016040523d82523d6000602084013e6116d0565b606091505b506000815103611715576040517f08c379a000000000000000000000000000000000000000000000000000000000815260040161170c906129a2565b60405180910390fd5b805181602001fd5b63150b7a0260e01b7bffffffffffffffffffffffffffffffffffffffffffffffffffffffff1916817bffffffffffffffffffffffffffffffffffffffffffffffffffffffff191614915050611772565b600190505b949350505050565b6060600082036117c1576040518060400160405280600181526020017f300000000000000000000000000000000000000000000000000000000000000081525090506118d5565b600082905060005b600082146117f35780806117dc90612c0f565b915050600a826117ec9190612c86565b91506117c9565b60008167ffffffffffffffff81111561180f5761180e611c5f565b5b6040519080825280601f01601f1916602001820160405280156118415781602001600182028036833780820191505090505b5090505b600085146118ce5760018261185a919061283a565b9150600a856118699190612cb7565b6030611875919061286e565b60f81b81838151811061188b5761188a612ce8565b5b60200101907effffffffffffffffffffffffffffffffffffffffffffffffffffffffffffff1916908160001a905350600a856118c79190612c86565b9450611845565b8093505050505b919050565b6000808273ffffffffffffffffffffffffffffffffffffffff163b119050919050565b82805461190990612134565b90600052602060002090601f01602090048101928261192b5760008555611972565b82601f1061194457805160ff1916838001178555611972565b82800160010185558215611972579182015b82811115611971578251825591602001919060010190611956565b5b50905061197f9190611983565b5090565b5b8082111561199c576000816000905550600101611984565b5090565b6000604051905090565b600080fd5b600080fd5b60007fffffffff0000000000000000000000000000000000000000000000000000000082169050919050565b6119e9816119b4565b81146119f457600080fd5b50565b600081359050611a06816119e0565b92915050565b600060208284031215611a2257611a216119aa565b5b6000611a30848285016119f7565b91505092915050565b60008115159050919050565b611a4e81611a39565b82525050565b6000602082019050611a696000830184611a45565b92915050565b600081519050919050565b600082825260208201905092915050565b60005b83811015611aa9578082015181840152602081019050611a8e565b83811115611ab8576000848401525b50505050565b6000601f19601f8301169050919050565b6000611ada82611a6f565b611ae48185611a7a565b9350611af4818560208601611a8b565b611afd81611abe565b840191505092915050565b60006020820190508181036000830152611b228184611acf565b905092915050565b6000819050919050565b611b3d81611b2a565b8114611b4857600080fd5b50565b600081359050611b5a81611b34565b92915050565b600060208284031215611b7657611b756119aa565b5b6000611b8484828501611b4b565b91505092915050565b600073ffffffffffffffffffffffffffffffffffffffff82169050919050565b6000611bb882611b8d565b9050919050565b611bc881611bad565b82525050565b6000602082019050611be36000830184611bbf565b92915050565b611bf281611bad565b8114611bfd57600080fd5b50565b600081359050611c0f81611be9565b92915050565b60008060408385031215611c2c57611c2b6119aa565b5b6000611c3a85828601611c00565b9250506020611c4b85828601611b4b565b9150509250929050565b600080fd5b600080fd5b7f4e487b7100000000000000000000000000000000000000000000000000000000600052604160045260246000fd5b611c9782611abe565b810181811067ffffffffffffffff82111715611cb657611cb5611c5f565b5b80604052505050565b6000611cc96119a0565b9050611cd58282611c8e565b919050565b600067ffffffffffffffff821115611cf557611cf4611c5f565b5b611cfe82611abe565b9050602081019050919050565b82818337600083830152505050565b6000611d2d611d2884611cda565b611cbf565b905082815260208101848484011115611d4957611d48611c5a565b5b611d54848285611d0b565b509392505050565b600082601f830112611d7157611d70611c55565b5b8135611d81848260208601611d1a565b91505092915050565b60008060408385031215611da157611da06119aa565b5b6000611daf85828601611b4b565b925050602083013567ffffffffffffffff811115611dd057611dcf6119af565b5b611ddc85828601611d5c565b9150509250929050565b600080600060608486031215611dff57611dfe6119aa565b5b6000611e0d86828701611c00565b9350506020611e1e86828701611c00565b9250506040611e2f86828701611b4b565b9150509250925092565b600060208284031215611e4f57611e4e6119aa565b5b600082013567ffffffffffffffff811115611e6d57611e6c6119af565b5b611e7984828501611d5c565b91505092915050565b600060208284031215611e9857611e976119aa565b5b6000611ea684828501611c00565b91505092915050565b611eb881611b2a565b82525050565b6000602082019050611ed36000830184611eaf565b92915050565b611ee281611a39565b8114611eed57600080fd5b50565b600081359050611eff81611ed9565b92915050565b60008060408385031215611f1c57611f1b6119aa565b5b6000611f2a85828601611c00565b9250506020611f3b85828601611ef0565b9150509250929050565b600067ffffffffffffffff821115611f6057611f5f611c5f565b5b611f6982611abe565b9050602081019050919050565b6000611f89611f8484611f45565b611cbf565b905082815260208101848484011115611fa557611fa4611c5a565b5b611fb0848285611d0b565b509392505050565b600082601f830112611fcd57611fcc611c55565b5b8135611fdd848260208601611f76565b91505092915050565b6000806000806080858703121561200057611fff6119aa565b5b600061200e87828801611c00565b945050602061201f87828801611c00565b935050604061203087828801611b4b565b925050606085013567ffffffffffffffff811115612051576120506119af565b5b61205d87828801611fb8565b91505092959194509250565b600080604083850312156120805761207f6119aa565b5b600061208e85828601611c00565b925050602083013567ffffffffffffffff8111156120af576120ae6119af565b5b6120bb85828601611d5c565b9150509250929050565b600080604083850312156120dc576120db6119aa565b5b60006120ea85828601611c00565b92505060206120fb85828601611c00565b9150509250929050565b7f4e487b7100000000000000000000000000000000000000000000000000000000600052602260045260246000fd5b6000600282049050600182168061214c57607f821691505b60208210810361215f5761215e612105565b5b50919050565b7f4552433732313a20617070726f76656420717565727920666f72206e6f6e657860008201527f697374656e7420746f6b656e0000000000000000000000000000000000000000602082015250565b60006121c1602c83611a7a565b91506121cc82612165565b604082019050919050565b600060208201905081810360008301526121f0816121b4565b9050919050565b7f4552433732313a20617070726f76616c20746f2063757272656e74206f776e6560008201527f7200000000000000000000000000000000000000000000000000000000000000602082015250565b6000612253602183611a7a565b915061225e826121f7565b604082019050919050565b6000602082019050818103600083015261228281612246565b9050919050565b7f4552433732313a20617070726f76652063616c6c6572206973206e6f74206f7760008201527f6e6572206e6f7220617070726f76656420666f7220616c6c0000000000000000602082015250565b60006122e5603883611a7a565b91506122f082612289565b604082019050919050565b60006020820190508181036000830152612314816122d8565b9050919050565b7f4552433732313a207472616e736665722063616c6c6572206973206e6f74206f60008201527f776e6572206e6f7220617070726f766564000000000000000000000000000000602082015250565b6000612377603183611a7a565b91506123828261231b565b604082019050919050565b600060208201905081810360008301526123a68161236a565b9050919050565b7f4552433732313a206f776e657220717565727920666f72206e6f6e657869737460008201527f656e7420746f6b656e0000000000000000000000000000000000000000000000602082015250565b6000612409602983611a7a565b9150612414826123ad565b604082019050919050565b60006020820190508181036000830152612438816123fc565b9050919050565b7f4552433732313a2062616c616e636520717565727920666f7220746865207a6560008201527f726f206164647265737300000000000000000000000000000000000000000000602082015250565b600061249b602a83611a7a565b91506124a68261243f565b604082019050919050565b600060208201905081810360008301526124ca8161248e565b9050919050565b7f45524337323155524953746f726167653a2055524920717565727920666f722060008201527f6e6f6e6578697374656e7420746f6b656e000000000000000000000000000000602082015250565b600061252d603183611a7a565b9150612538826124d1565b604082019050919050565b6000602082019050818103600083015261255c81612520565b9050919050565b600081905092915050565b600061257982611a6f565b6125838185612563565b9350612593818560208601611a8b565b80840191505092915050565b60006125ab828561256e565b91506125b7828461256e565b91508190509392505050565b7f45524337323155524953746f726167653a2055524920736574206f66206e6f6e60008201527f6578697374656e7420746f6b656e000000000000000000000000000000000000602082015250565b600061261f602e83611a7a565b915061262a826125c3565b604082019050919050565b6000602082019050818103600083015261264e81612612565b9050919050565b7f4552433732313a206f70657261746f7220717565727920666f72206e6f6e657860008201527f697374656e7420746f6b656e0000000000000000000000000000000000000000602082015250565b60006126b1602c83611a7a565b91506126bc82612655565b604082019050919050565b600060208201905081810360008301526126e0816126a4565b9050919050565b7f4552433732313a207472616e736665722066726f6d20696e636f72726563742060008201527f6f776e6572000000000000000000000000000000000000000000000000000000602082015250565b6000612743602583611a7a565b915061274e826126e7565b604082019050919050565b6000602082019050818103600083015261277281612736565b9050919050565b7f4552433732313a207472616e7366657220746f20746865207a65726f2061646460008201527f7265737300000000000000000000000000000000000000000000000000000000602082015250565b60006127d5602483611a7a565b91506127e082612779565b604082019050919050565b60006020820190508181036000830152612804816127c8565b9050919050565b7f4e487b7100000000000000000000000000000000000000000000000000000000600052601160045260246000fd5b600061284582611b2a565b915061285083611b2a565b9250828210156128635761286261280b565b5b828203905092915050565b600061287982611b2a565b915061288483611b2a565b9250827fffffffffffffffffffffffffffffffffffffffffffffffffffffffffffffffff038211156128b9576128b861280b565b5b828201905092915050565b7f4552433732313a20617070726f766520746f2063616c6c657200000000000000600082015250565b60006128fa601983611a7a565b9150612905826128c4565b602082019050919050565b60006020820190508181036000830152612929816128ed565b9050919050565b7f4552433732313a207472616e7366657220746f206e6f6e20455243373231526560008201527f63656976657220696d706c656d656e7465720000000000000000000000000000602082015250565b600061298c603283611a7a565b915061299782612930565b604082019050919050565b600060208201905081810360008301526129bb8161297f565b9050919050565b7f4552433732314d657461646174613a2055524920717565727920666f72206e6f60008201527f6e6578697374656e7420746f6b656e0000000000000000000000000000000000602082015250565b6000612a1e602f83611a7a565b9150612a29826129c2565b604082019050919050565b60006020820190508181036000830152612a4d81612a11565b9050919050565b7f4552433732313a206d696e7420746f20746865207a65726f2061646472657373600082015250565b6000612a8a602083611a7a565b9150612a9582612a54565b602082019050919050565b60006020820190508181036000830152612ab981612a7d565b9050919050565b7f4552433732313a20746f6b656e20616c7265616479206d696e74656400000000600082015250565b6000612af6601c83611a7a565b9150612b0182612ac0565b602082019050919050565b60006020820190508181036000830152612b2581612ae9565b9050919050565b600081519050919050565b600082825260208201905092915050565b6000612b5382612b2c565b612b5d8185612b37565b9350612b6d818560208601611a8b565b612b7681611abe565b840191505092915050565b6000608082019050612b966000830187611bbf565b612ba36020830186611bbf565b612bb06040830185611eaf565b8181036060830152612bc28184612b48565b905095945050505050565b600081519050612bdc816119e0565b92915050565b600060208284031215612bf857612bf76119aa565b5b6000612c0684828501612bcd565b91505092915050565b6000612c1a82611b2a565b91507fffffffffffffffffffffffffffffffffffffffffffffffffffffffffffffffff8203612c4c57612c4b61280b565b5b600182019050919050565b7f4e487b7100000000000000000000000000000000000000000000000000000000600052601260045260246000fd5b6000612c9182611b2a565b9150612c9c83611b2a565b925082612cac57612cab612c57565b5b828204905092915050565b6000612cc282611b2a565b9150612ccd83611b2a565b925082612cdd57612cdc612c57565b5b828206905092915050565b7f4e487b7100000000000000000000000000000000000000000000000000000000600052603260045260246000fdfea2646970667358221220cf81bb339ab99c20dfd844848e7bfec2d2485c8744f768053b39cfdfd89f63a064736f6c634300080d0033",
  "immutableReferences": {},
  "source": "// SPDX-License-Identifier: MIT\npragma solidity 0.8.13;\n\nimport \"@openzeppelin/contracts/token/ERC721/extensions/ERC721URIStorage.sol\";\nimport \"@openzeppelin/contracts/utils/Counters.sol\";\n\ncontract Remixr is ERC721URIStorage {\n    string baseURI;\n\n    using Counters for Counters.Counter;\n    Counters.Counter private _id;\n\n    constructor(string memory _name, string memory _symbol) ERC721(_name, _symbol) {}\n\n    function setTokenURI(\n        uint256 tokenId, \n        string memory tokenURI\n    ) external {\n        _setTokenURI(tokenId, tokenURI);\n    }\n    \n    function setBaseURI(string memory baseURI_) external {\n        baseURI = baseURI_;\n    }\n    \n    function _baseURI() internal view override returns (string memory) {\n        return baseURI;\n    }\n\n    function mint(\n        address owner, \n        string memory cid\n    ) external returns (uint256) {\n        _id.increment();\n        uint256 newId = _id.current();\n\n        _mint(owner, newId);\n        _setTokenURI(newId, cid);\n\n        return newId;\n    }\n}\n",
  "sourcePath": "/Users/bluer/Developer/truffle-creator-box/contracts/TruffleCreator.sol",
  "compiler": {
    "name": "solc",
    "version": "0.8.13+commit.abaa5c0e.Emscripten.clang"
  },
  "schemaVersion": "3.4.7",
  "updatedAt": "2022-04-20T19:39:22.547Z",
  "networkType": "ethereum",
  "devdoc": {
    "kind": "dev",
    "methods": {
      "approve(address,uint256)": {
        "details": "See {IERC721-approve}."
      },
      "balanceOf(address)": {
        "details": "See {IERC721-balanceOf}."
      },
      "getApproved(uint256)": {
        "details": "See {IERC721-getApproved}."
      },
      "isApprovedForAll(address,address)": {
        "details": "See {IERC721-isApprovedForAll}."
      },
      "name()": {
        "details": "See {IERC721Metadata-name}."
      },
      "ownerOf(uint256)": {
        "details": "See {IERC721-ownerOf}."
      },
      "safeTransferFrom(address,address,uint256)": {
        "details": "See {IERC721-safeTransferFrom}."
      },
      "safeTransferFrom(address,address,uint256,bytes)": {
        "details": "See {IERC721-safeTransferFrom}."
      },
      "setApprovalForAll(address,bool)": {
        "details": "See {IERC721-setApprovalForAll}."
      },
      "supportsInterface(bytes4)": {
        "details": "See {IERC165-supportsInterface}."
      },
      "symbol()": {
        "details": "See {IERC721Metadata-symbol}."
      },
      "tokenURI(uint256)": {
        "details": "See {IERC721Metadata-tokenURI}."
      },
      "transferFrom(address,address,uint256)": {
        "details": "See {IERC721-transferFrom}."
      }
    },
    "version": 1
  },
  "userdoc": {
    "kind": "user",
    "methods": {},
    "version": 1
  }
}